:020000040800F2
:1000000098040020C5010008F9030008F103000866
:10001000F50300088D030008050900080000000032
:100020000000000000000000000000003D05000886
:1000300091030008000000002504000841050008A5
:10004000DF010008DF010008DF010008DF01000810
:10005000DF010008DF010008DF010008DF01000800
:10006000DF010008DF010008DF010008DF010008F0
:10007000DF010008DF010008DF010008DF010008E0
:10008000DF010008DF010008DF010008DF010008D0
:10009000DF010008DF010008DF010008DF010008C0
:1000A000DF010008DF010008DF010008DF010008B0
:1000B000C5060008DF010008DF010008DF010008B5
:1000C000DF010008DF010008DF010008DF01000890
:1000D000DF010008DF010008DF01000899080008BF
:1000E000DF010008DF010008DF010008DF01000870
:1000F000DF010008DF010008DF010008DF01000860
:10010000DF010008DF010008DF010008DF0100084F
:10011000DF010008DF010008DF010008DF0100083F
:10012000DF010008DF010008DF010008DF0100082F
:10013000DF010008DF010008DF010008DF0100081F
:10014000DF010008DF010008DF010008DF0100080F
:10015000DF010008DF010008DF010008DF010008FF
:10016000DF010008DF010008DF010008DF010008EF
:10017000DF010008DF010008DF01000800000000C7
:10018000DF010008DF010008DF010008DF010008CF
:10019000DF010008DF010008DF01000800000000A7
:1001A000DF010008DF010008DF010008DFF810D0E0
:1001B00000F05AF80048004755120008AFF30080DD
:1001C000980400200648804706480047FEE7FEE7FF
:1001D000FEE7FEE7FEE7FEE7FEE7FEE7FEE7FEE7F7
:1001E00049050008AD01000810B5002200E0521CCE
:1001F000835C8C5CA34201D1002BF8D1D8B2E1B270
:10020000401A10BD2DE9F05F0546002092469B463E
:1002100088460646814640241BE02846414647461C
:10022000224600F042F853465A46C01A914110D374
:1002300011461846224600F029F82D1A67EB0108EE
:100240004F4622460120002100F020F817EB00095C
:100250004E41201EA4F10104DFDC484631462A4607
:100260004346BDE8F09F0000064C074D06E0E068FD
:1002700040F0010394E8070098471034AC42F6D3ED
:10028000FFF798FF381D0008581D0008202A04DBDE
:10029000203A00FA02F1002070479140C2F1200399
:1002A00020FA03F3194390407047202A04DB203AD8
:1002B00021FA02F00021704721FA02F3D040C2F186
:1002C00020029140084319467047000010B541F2E2
:1002D000081001F027F94FF4406001F023F94FF4C2
:1002E000803000F0FBFD0123002203211A4800F0BA
:1002F00060FF00F010FE002000F0E6FE00224FF448
:100300008071164800F0B3FE00220221134800F06D
:10031000AEFE0021114800F0F3FD00210F4800F06F
:1003200032FE0623002211460C4800F034FE012262
:1003300011460A4800F0A8FD00220121074800F0FC
:10034000FDFD064800F0F1FD052000F0CFFE03485A
:1003500000F085FD10BD00000000024000200140BB
:1003600010B50121084800F070FE00BF02210648C8
:1003700000F002FE0028F9D00221034800F0F8FD49
:10038000014800F05EFE10BD0020014000BFFEE706
:1003900000BFFEE738B500244FF48051134800F049
:1003A000FCFE9F2000F0AEF8FF2000F0ABF88DF8C7
:1003B0000000FF2000F0A6F88DF80100FF2000F0FB
:1003C000A1F88DF802004FF48051084800F0E7FED4
:1003D0009DF8000000049DF8011040EA01209DF8FE
:1003E000021040EA0104204638BD0000000402402B
:1003F00000BFFEE700BFFEE700BFFEE710B5002824
:1004000007DA0A07140E054A00F00F031B1FD45425
:1004100003E00A07130E024A135410BD18ED00E062
:1004200000E400E000BFFEE710B540F6044001F034
:1004300079F8042301220021014800F0BAFE10BD22
:100440000010024010B5052000F050FE04210448C1
:1004500000F0A7FE08B9012010BD0020FCE7000055
:100460000010024000B587B041F20E0001F05AF8CA
:1004700040F6014001F056F84FF4604205211F4854
:1004800000F05CFE4FF46043002202211B4800F0A4
:1004900090FE4FF4604302220021184800F0B8FE9D
:1004A0004FF4805300220121144800F082FE4FF4E3
:1004B000805302220021114800F0AAFE4FF480511F
:1004C0000E4800F06CFE0E4801F080F8002001900C
:1004D0004FF4827000900020029005904FF400705D
:1004E000039018200690002004906946044801F00B
:1004F000CBF8034801F05EF807B000BD00040240ED
:100500000038004010B5044600BF02210A4801F03F
:10051000B3F80028F9D02146074801F054F800BF8D
:100520000121054801F0A8F80028F9D0024801F09F
:1005300046F8C0B210BD00000038004000BFFEE722
:1005400010B500F0DDFD10BD1CB55A48006840F440
:100550007000584908605848006840F0010056494A
:10056000086000BF5448006800F002000028F9D07D
:1005700051480830006800F00C0008286ED100BF18
:100580000020019002E00198401C01900198502841
:10059000F9D34948083000680090009820F0F00036
:1005A0000090009840F08000009043490831009886
:1005B00008600020019002E00198401C0190019821
:1005C0005028F9D33C48083000680090009820F08B
:1005D000F0000090009840F09000009036490831FB
:1005E000009808600020019002E00198401C0190F2
:1005F00001985028F9D330480830006800900098DE
:1006000020F0F0000090009840F0A00000902A49EF
:100610000831009808600020019002E00198401C19
:10062000019001985028F9D32348083000680090C1
:10063000009820F0F0000090009840F0B00000908A
:100640001D490831009808600020019002E00198DF
:10065000401C019001985028F9D300BF164808307B
:10066000006820F00300144908310860C82000F039
:10067000E8FB11480068114908400F490860084626
:10068000006820F48020086000200B4908310860D1
:1006900000BF09480830006800200028F9D1084848
:1006A0000549091D0860002003490C31086001F06C
:1006B0008DF81CBD88ED00E000380240FFFFF6FE1B
:1006C0001030002410B50121880701F0CCF9F8B1F1
:1006D0000121880701F0C4F918480068401C174937
:1006E0000860084600686421B0FBF1F201FB1200CB
:1006F00070B90221124800F083FD012804D10221C3
:100700000F4800F04AFD03E002210D4800F047FDCC
:100710000A4800684FF4FA71B0FBF1F201FB1200D5
:1007200050B901200749087004480068B0F5FA7F05
:1007300002D900200149086010BD00000800002017
:10074000000002400C00002010B5FFF723FE044615
:100750000FA000F02BF944B16FF07F40844204D029
:10076000214614A000F022F902E01AA000F01EF9C0
:10077000FFF768FE012803D11EA000F017F902E080
:1007800022A000F013F902A000F010F910BD000043
:100790000D0A3D3D3D3D3D3D2053797374656D200F
:1007A00053656C6674657374203D3D3D3D3D3D0D64
:1007B0000A0000000D0A466C6173682049442E2E21
:1007C0002E2E2E2E2E30782530365820286F6B296D
:1007D0000D0A00000D0A466C6173682049442E2EF4
:1007E0002E2E2E2E2E63616E206E6F742072656128
:1007F000640D0A000D0A544620636172642E2E2E89
:100800002E2E2E2E2E6F6B0D0A0000000D0A544660
:1008100020636172642E2E2E2E2E2E2E2E65727265
:100820006F720D0A000000001FB54FF4805000F0F9
:1008300079FE4FF0807000F0ABFE684601F01FF9C2
:100840004FF0804000F0F4FFEF20ADF800000020F2
:10085000ADF80200ADF8040042F20F7002900020E3
:10086000ADF806008DF80C0069464FF0804001F0AD
:10087000A7F84FF0804000F0D5FF0121880701F074
:10088000EBF8002203211C2000F042FD4FF08040D5
:1008900001F090F81FBD000010B51549154801F092
:1008A00006FA18B3134801F069F9C4B21248007887
:1008B000D8B90A2C0BD100201049114A127888545B
:1008C00001200D49087000200D4908700DE00D2C25
:1008D0000BD00B4800787F2807DA094801780078A8
:1008E000401C074A10700548445400BF10BD00006A
:1008F00005030500004800400D00002018000020FE
:100900000E00002000BFFEE710B540F6024000F0E8
:1009100009FE40F6024000F005FE41F2120000F030
:1009200001FE4FF4406207211A4800F007FC4FF423
:10093000406301220221174800F03BFC4FF4806322
:1009400002220021134800F063FC134801F020F953
:100950004FF41651104801F09DF800210E4801F0A7
:10096000C2F900210C4801F0DEF900210A4801F02B
:10097000CAF9094801F07AF90821074801F0CBF9D2
:100980000421054801F0B7F940F20531024801F0B1
:1009900081F910BD000802400048004010B5002257
:1009A0000121272000F0B4FC10BD00000FB4054B5E
:1009B00010B503A9044A029800F018F810BC5DF8BD
:1009C00014FB0000191100081400002002E008C800
:1009D000121F08C1002AFAD170477047002001E0B9
:1009E00001C1121F002AFBD1704700002DE9FF4F03
:1009F0008DB00F460546002606E025280BD0DDE920
:100A00000F1290476D1C761C28780028F5D111B084
:100A10003046BDE8F08F0024A246A1460122E949F4
:100A200000E0044315F8013F203B02FA03F00842BE
:100A3000F7D128782A2810D06FF02F022878A0F15B
:100A40003001092914D80AEB8A0102EB410144F074
:100A5000020400EB010A6D1CF0E701CF5FEA000A17
:100A600003D544F40054CAF1000A44F002046D1C9A
:100A700028782E2817D115F8010F44F004042A28ED
:100A80000ED06FF02F022878A0F1300109290AD882
:100A900009EB890102EB410100EB01096D1CF2E752
:100AA00057F8049B6D1C28786C280FD006DC4C2866
:100AB00017D068280DD06A2814D104E0742810D00B
:100AC0007A280FD10DE044F400140AE044F48014B5
:100AD00001E044F440146978814202D104F58014A5
:100AE0006D1C6D1C28786E281ED00CDC632830D05D
:100AF00004DC00288BD0582811D19FE0642867D0EF
:100B000069280CD164E073282DD004DC6F2872D0E2
:100B1000702804D194E075286ED078286DD0DDE976
:100B20000F129047761C4BE1C4F30250022806D006
:100B3000032809D0042801CF09D0066040E101CF85
:100B4000F117C0E900613BE101CF068038E1067092
:100B500036E117F8040B8DF8000000208DF8010035
:100B6000EB46012003E057F804BB4FF0FF3061076C
:100B70004FF0000102D40DE008F10101884649451B
:100B80000FDA8045F8DB1BF808100029F4D108E0E3
:100B900008F1010188468142FADB1BF808100029A0
:100BA000F6D1DDE90F23AAEB08008146214600F0CB
:100BB00031F9304400EB080604E0DDE90F121BF8C0
:100BC000010B9047B8F10108F7D221464846F2E000
:100BD0000A21C4F302524FF0000B0891022A04D0FC
:100BE00001CFC117032A09D00AE0FF1D27F007072C
:100BF000F7E8020108E02CE01EE01FE000B2C11798
:100C0000042A01D140B2C117021E71F1000206DAB6
:100C10000023D0EB030063EB01012D2202E022054B
:100C200004D52B228DF82420012203E0E20701D015
:100C30002022F7E7904653E00A210BE0102109E05B
:100C400010214FF0000B44F004044FF00809089104
:100C500003E008214FF0000B0891C4F30252022A6E
:100C600004D001CF0021032A06D006E0FF1D27F0A3
:100C70000707F7E8020103E080B2042A00D1C0B2FE
:100C80004FF0000822072BD52A78702A07D0DDF80C
:100C900020C08CF0100C5CEA0B0C05D00EE040225A
:100CA0008DF82420012208E050EA010306D0302309
:100CB0008DF824308DF8252002229046089B83F081
:100CC000080353EA0B030BD150EA010201D162077A
:100CD00006D530228DF824204FF00108A9F1010932
:100CE0002A78582A04D038A20B9208AA0A920BE05C
:100CF0003AA2F9E75B46089AFFF784FA0B9B9B5CE4
:100D00000A9A521E0A92137050EA0102F2D10A980E
:100D1000ADEB000000F1200B600702D524F4803415
:100D200001E04FF00109D94502DDA9EB0B0000E01D
:100D3000002000EB0B0141440890AAEB010AE003FC
:100D400006D4DDE90F232146504600F063F806443F
:100D50004FF0000908E009A911F80900DDE90F12B8
:100D6000904709F10109761CC145F4DBE0030CD57D
:100D7000DDE90F232146504600F04CF8064404E01C
:100D8000DDE90F1230209047761C0899481E089024
:100D90000029F5DC08E00A980A990078491C0A91B4
:100DA000DDE90F129047761CBBF10001ABF1010B9E
:100DB000F1DC21465046DDE90F2300F019F8064426
:100DC0006D1C21E6092801003031323334353637C5
:100DD0003839616263646566000000003031323387
:100DE0003435363738394142434445460000000027
:100DF0002DE9F041044600251E461746880404D418
:100E000005E039462020B0476D1C641EF9D5284600
:100E1000BDE8F0812DE9F041044600251E469046CC
:100E2000C80301D5302700E02027880404D505E059
:100E300041463846B0476D1C641EF9D52846BDE8CA
:100E4000F08108B50021009102E00099491C009151
:100E500000EB8001009AB2EB410FF6D308BD816828
:100E600041F00801816000BF816801F0080100299C
:100E7000FAD1816841F00401816000BF816801F00E
:100E800004010029FAD1704730B5012902D00229A6
:100E900020D10FE06AB1102A0BD8C36A23F4700383
:100EA000C362C36A541E4FF4700505EA0454234319
:100EB000C36210E06AB1042A0BD8836B23F4401399
:100EC0008363836B541E4FF4401505EA0454234397
:100ED000836300E000BF00BF30BD00000649096821
:100EE00021F4E021054AC2F804131146D1F8041395
:100EF0000143C2F80413704704230140002001405D
:100F000021B1826842F40062826003E0826822F4C8
:100F100000628260704710B540F6081000F026FBB2
:100F200040F6081000F010FB10BD816801F00101CF
:100F300019B9816841F0010181607047012902D02F
:100F4000022912D108E0836823F04053836083684C
:100F500043EA0273836009E0836823F440138360EB
:100F6000836843EA0253836000E000BF00BF70471C
:100F700002688A43026070470246002013680B40F3
:100F800003B101207047426822F04072426042681B
:100F90000A4342607047F0B51D4606290CDA436BE0
:100FA00001EB81071F26BE40B34301EB810602FA25
:100FB00006F63343436322E00C290EDA036B8E1FDF
:100FC00006EB86071F26BE40B3438E1F06EB860640
:100FD00002FA06F63343036311E010290FDAC36AFD
:100FE000A1F10C0606EB86071F26BE40B343A1F114
:100FF0000C0606EB860602FA06F63343C3620A2A9B
:101000000CDA046902EB42070726BE40B44302EB48
:10101000420605FA06F63443046111E0122A0FDC99
:10102000C468A2F10A0606EB46070726BE40B44391
:10103000A2F10A0606EB460605FA06F63443C4603A
:10104000F0BD0146C86C80B27047012902D0022968
:101050000AD104E0826842F08042826005E0826842
:1010600042F48002826000E000BF00BF7047AAB176
:1010700001F480731BB1436843F48073436001F44F
:1010800080631BB1436843F48063436001F0020353
:10109000CBB1836843F00203836014E001F48073F2
:1010A0001BB1436823F48073436001F480631BB178
:1010B000436823F48063436001F002031BB183683B
:1010C00023F00203836070470649096821F01F017D
:1010D000054AC2F804131146D1F804130143C2F8BB
:1010E00004137047042301400020014003490860B5
:1010F00000BF024909680029FBD1704704000020A5
:101100000448006820B103480068401E0149086097
:10111000704700000400002070B504460D46E1B29F
:10112000054800F030FD00BF0621034800F0A3FD94
:101130000028F9D0204670BD00480040F0B50346B5
:101140001C6A5D6A00200DE00126864016403EB113
:1011500087000F26BE40B443860001FA06F63443EA
:10116000461CB0B20828EFD3082011E001268640C3
:1011700016405EB1A0F10806B7000F26BE40B54389
:10118000A0F10806B60001FA06F63543461CB0B2D7
:101190001028EBD31C625D62F0BD816270478161F3
:1011A000704702461069084008B1012070470020CE
:1011B000FCE7F0B504460D4616462168E2680020BB
:1011C00019E0012787401F409FB14FEA400C0327D9
:1011D00007FA0CF7B943470005FA07F739434FEA16
:1011E000400C032707FA0CF7BA43470006FA07F743
:1011F0003A43471CB8B21028E3D32160E260F0BD47
:1012000002465069084008B1012070470020FCE701
:10121000F0B50C461546012C03D146681E434660C6
:1012200002E046689E434660826800210DE0012688
:101230008E401E403EB14F000326BE40B2434E00DA
:1012400005FA06F632434E1CB1B21029EFD3826084
:10125000F0BD000000214FF0006000F0C5F84FF431
:10126000A06000F0B7F800F0B5FAFFF7DDFAFFF77D
:101270002DF8FFF749FBFFF791FBFFF7D5F8FFF7D4
:10128000F1F81420FFF732FF00BF1648007801285C
:101290000ED115A11648FEF7A7FF10B9FFF754FAB3
:1012A00003E014A11248FEF79FFF00200D490870CB
:1012B000134800780128E8D1FFF752F800EE100A31
:1012C000B8EE400ADFED0F0A20EE200ADFED0E0A2D
:1012D00080EE201ABCEEC10A10EE100A0B490880FD
:1012E000D3E700000D000020746573740000000057
:1012F000180000205254435F436F6E666967000018
:101300000C0000203333534000F07F4500000020E4
:101310002DE9F04103460D46164600240027A0465D
:101320002A48006800F4E060B0F5E06F03D100BF28
:101330004FF0040830E02548006800F4E060B0F5A4
:10134000C06F03D101274FF0030825E01F48006854
:1013500000F4E060B0F5A06F02D10227B8461BE0B0
:101360001A48006800F4E060B0F5806F03D10327ED
:101370004FF0010810E01548006800F4E060B0F597
:10138000407F03D104274FF0000805E04FF4A06030
:1013900000F020F80227B846C7F1040005FA00F46F
:1013A000C8F104010F20C84030400443240108481C
:1013B000C45403F01F01012088405911890001F134
:1013C000E021C1F80001BDE8F08100000CED00E073
:1013D00000E400E002490143024A11607047000046
:1013E0000000FA050CED00E0034A0A400243034BFB
:1013F0001A60BFF34F8F704780FFFF1F08ED00E0BA
:101400002DE9F04F8CB0064600200A903EA090E8EF
:10141000004CC068CDE905BECDF810A007900FF2D2
:10142000EC0ADAE9000ACDE9020A0FF2E00ADAE989
:10143000000ACDE9000A38480068C0F381000B902B
:101440000B9820B1012804D0022828D103E03349A9
:1014500027E0334925E03048001F006800F03F07CF
:101460002D48001F0068C0F3881C2B48001F00682F
:10147000C0F30140401C4FEA40092748001F0068A4
:1014800000F48008B8F5800F01D1254B00E0234B14
:10149000B3FBF7F000FB0CF0B0FBF9F101E01F49E2
:1014A00000BF00BF1C480068C0F3031404A8055D1A
:1014B00021FA05F218480068C0F3822402A8055DED
:1014C00022FA05F0099014480068C0F342341DF870
:1014D000045022FA05F0089036B1012E06D0022EF3
:1014E00006D0032E0AD106E00A9108E00A9206E02F
:1014F00009980A9003E008980A9000E000BF00BF36
:101500000A980CB0BDE8F08F000000000000000059
:101510000102030406070809083802400024F40009
:1015200040787D01074A02EB9011D1F8001800F0D5
:101530001F0301229A401143024B03EB9012C2F8A1
:101540000018704700300240074A02EB9011D1F8B2
:10155000001800F01F0301229A409143024B03EB55
:101560009012C2F80018704700300240074A02EBA0
:101570009011D1F8001800F01F0301229A40114386
:10158000024B03EB9012C2F8001870470030024083
:101590006FF08071884205D1054909680140044A0D
:1015A000116004E0024909680143014A1160704773
:1015B0008C380240016841F04001016070470146EB
:1015C000C86880B27047C1607047000010B504461B
:1015D0002749601A8C422CD009DC26482044B0B13F
:1015E000B0F5806F1CD0B0F5784F3DD106E0B0F576
:1015F000E05F27D0B0F5005F36D12CE040F60C104C
:10160000FFF7B4FF40F60C10FFF79EFF2DE040F609
:101610000E00FFF7ABFF40F60E00FFF795FF24E04A
:1016200040F60F00FFF7A2FF40F60F00FFF78CFF18
:101630001BE040F60D10FFF799FF40F60D10FFF785
:1016400083FF12E040F61410FFF790FF40F61410ED
:10165000FFF77AFF09E040F61510FFF787FF40F625
:101660001510FFF771FF00E000BF00BF10BD0000C4
:101670000034014000C8FFBF02469068084008B12E
:10168000012070470020FCE702460020106800F4AB
:1016900041500B6818434B6818438B681843CB685C
:1016A00018430B6918434B6918438B691843106042
:1016B000D36923F40063D3617047000008B50020AC
:1016C00000213F4A126842F480323D4B1A6000BF4D
:1016D000401C3B4A126802F4003119B94FF6FF7200
:1016E0009042F5D1364A126802F4003232B900BF96
:1016F000334A126802F40032002AF9D0304A4032EC
:10170000126842F080522E4B40331A602D4A126804
:1017100042F440422B4B1A60294A08321268284B87
:1017200008331A601A46126842F400421A601A46D8
:10173000126842F4A0521A60234A1B1F1A601A1F33
:10174000126842F080721B1F1A6000BF1C4A1268A8
:1017500002F00072002AF9D01A4A126842F480326C
:10176000184B1A6000BF174A526802F48032002AF0
:10177000F9D0144A126842F40032124B1A6000BFCA
:10178000104A526802F40032002AF9D00C4A08329A
:1017900012680092009A22F003020092009A42F02E
:1017A00002020092064B0833009A1A6000BF044AF6
:1017B0000832126802F00802002AF8D008BD0000C2
:1017C00000380240007000401978400A10B5FFF759
:1017D00075FF10BD10B5124800684FF47A71B0FB68
:1017E000F1F4601EB0F1807F01D301200FE0601E94
:1017F0004FF0E02148610F214FF0FF30FEF7FEFD72
:1018000000204FF0E021886107200861002008B126
:1018100000BFFEE70021481EFEF7F0FD10BD0000EE
:1018200010000020016841F0800101607047000055
:1018300010B504465C49601A8C426FD019DC5B49D4
:10184000A4EB01008C424ED009DCB4F1804F2ED0C5
:1018500057482044A0B3B0F5806F72D13AE0B0F59C
:10186000806F49D0B0F5006F4FD0B0F5406FF4D124
:101870007BE0B0F5923F5BD009DCB0F5806F73D0B0
:10188000B0F5644F0AD0B0F5684F5AD147E0B0F5D3
:10189000943F57D0B0F5963F53D15CE04FF41060C1
:1018A000FFF764FE4FF41060FFF74EFE79E04FF44F
:1018B0000060FFF75BFE4FF40060FFF745FE70E04D
:1018C000FFE740F60100FFF751FE40F60100FFF789
:1018D0003BFE66E040F60200FFF748FE40F60200DD
:1018E000FFF732FE5DE040F60300FFF73FFE40F6F3
:1018F0000300FFF729FE54E040F60400FFF736FE30
:1019000040F60400FFF720FE4BE040F60500FFF72D
:101910002DFE40F60500FFF717FE42E02EE040F6F0
:101920000110FFF723FE40F60110FFF70DFE38E02F
:101930004FF41160FFF71AFE4FF41160FFF704FE39
:101940002FE02DE040F61110FFF710FE40F61110C9
:10195000FFF7FAFD25E040F61210FFF707FE40F60C
:101960001210FFF7F1FD1CE011E040F60600FFF752
:10197000FDFD40F60600FFF7E7FD12E040F6070028
:10198000FFF7F4FD40F60700FFF7DEFD09E040F643
:101990000800FFF7EBFD40F60800FFF7D5FD00E07B
:1019A00000BF00BF10BD0000001C0040000C004044
:1019B00000FCFFBF016841F00101016070470000B9
:1019C0000A8882621D4A90420ED0B0F1804F0BD03F
:1019D0001B4A904208D01B4A904205D01A4A9042B6
:1019E00002D01A4A90420BD1026822F070020260C3
:1019F00002684B881A43026002688B881A430260AF
:101A00008A68C262124A90420AD0124A904207D0B3
:101A1000026822F4407202600268CB881A430260B6
:101A2000064A904202D0094A904201D10A7B0263E1
:101A3000426942F00102426170470000000001402B
:101A40000004004000080040000C00400004014079
:101A50000010004000140040C2680A43C260704792
:101A6000CA43026170470246D06800EA0103106968
:101A7000084010B10BB1012070470020FCE70021A5
:101A80000180418081804FF6FF7181600021C1801B
:101A9000017370472DE9F04704460D460027B8460C
:101AA000B94600263349601A8C4235D00CDC3248E6
:101AB0002044E8B1B0F5806F1FD0B0F5006F21D0A1
:101AC000B0F5406F32D122E0B0F5806F29D0B0F58B
:101AD000184F03D0B0F51C4F28D104E00320FFF7C6
:101AE0008FFC074623E00320FFF78AFC07461EE031
:101AF0000220FFF785FC074619E00220FFF780FC73
:101B0000074614E00220FFF77BFC07460FE00220A7
:101B1000FFF776FC07460AE00220FFF771FC074654
:101B200005E00220FFF76CFC074600E000BF00BFA5
:101B3000E06800F4004070B1780000EB5500B0FBA5
:101B4000F5F64FF6F07006EA0008C6F3420948EAD7
:101B50000900A0600CE007EB5500B0FBF5F64FF66E
:101B6000F07006EA000806F00F0948EA0900A060D4
:101B7000BDE8F0870078004000BCFFBF0146486820
:101B8000C0F308007047C1F30802426070470000CC
:101B900010B504463349601A8C424DD00CDC3248F3
:101BA0002044E0B1B0F5806F22D0B0F5006F31D0A5
:101BB000B0F5406F52D136E0B0F5806F45D0B0F54A
:101BC000184F03D0B0F51C4F48D11AE040F604106E
:101BD000FFF7CCFC40F60410FFF7B6FC3FE040F600
:101BE0001100FFF7C3FC40F61100FFF7ADFC36E033
:101BF00040F61200FFF7BAFC40F61200FFF7A4FC13
:101C00002DE040F60510FFF7B1FC40F60510FFF798
:101C10009BFC24E040F61300FFF7A8FC40F61300FD
:101C2000FFF792FC1BE040F61400FFF79FFC40F624
:101C30001400FFF789FC12E040F61E00FFF796FC47
:101C400040F61E00FFF780FC09E040F61F00FFF79A
:101C50008DFC40F61F00FFF777FC00E000BF00BFDF
:101C600010BD00000078004000BCFFBFC16841F417
:101C70000051C160704710B5024602EB9110006838
:101C800001F01F040123A340184008B1012010BD3A
:101C90000020FCE710B500EB9112126801F01F0460
:101CA0000123A3401A4300EB91131A6010BD70B5D5
:101CB000024600230024C1F38910105801F01F06CA
:101CC0000125B54000EA050302EB91500068C1F31D
:101CD00004460125B54000EA050414B10BB101200A
:101CE00070BD0020FCE7C26822F4C062C260C26816
:101CF0000A43C26070470A460021C16821F004010E
:101D00001143C1607047026922F4405202610269C6
:101D10000A43026170470A460021C16821F00801A8
:101D20001143C1607047C26822F48052C260C26829
:101D30000A43C26070470000581D000800000020E0
:101D400018000000CC090008701D000818000020D1
:101D500080040000DC090008000000000000000012
:101D60000000000000000000001C4E0E00000000FB
:04000005080001AD41
:00000001FF
